S00D00004F4C4544312E73726563C2
S21440000018254020C5064000C1064000C1064000F5
S214400010C1064000C1064000C10640000000000086
S214400020000000000000000000000000C106400084
S214400030C106400000000000C1064000C106400066
S214400040C1064000C1064000C1064000810940008C
S214400050C1064000C1064000C1064000C10640003F
S214400060C106400000000000E9044000FD044000D6
S21440007011054000C1064000C1064000C1064000D0
S2144000802505400039054000C1064000C106400035
S214400090C1064000C1064000C1064000C1064000FF
S2144000A0C1064000C1064000C1064000C1064000EF
S2144000B0C1064000C1064000C1064000C1064000DF
S2144000C0C1064000C1064000C1064000C1064000CF
S2144000D000000000C106400000000000C1064000CD
S2144000E0C1064000C1064000C1064000C1064000AF
S2144000F0C1064000C1064000C1064000C10640009F
S214400100C1064000C1064000C1064000C10640008E
S214400110C106400000000000000000000000000093
S214400120C1064000C1064000C1064000C10640006E
S214400130C106400000000000C1064000C106400065
S21440014010B5054C237833B9044B13B10448AFF3CC
S21440015000800123237010BD5C0440200000000096
S214400160701240000C4B43B10C480D4910B5AFF32C
S21440017000800C48036823B910BD0A48036833B9A9
S2144001807047094B002BF7D0BDE810401847064B88
S214400190002BF5D0184700BF00000000701240004A
S2144001A0600440207012400000000000C0687047A5
S2144001B010B51048104B98473E2100200F4B9847EB
S2144001C00F4CA0470028FCD00E4B98470E4A0F4BCA
S2144001D09A620F4CA0470028FCD002200D4B98474F
S2144001E000200D4B98470D4B98470248024B9847C6
S2144001F010BD00BF00A3E11199084000E90540008A
S2144002003D0640004D064000013F182000060E40C7
S2144002105D0640004D054000850540008D074000C6
S214400220F8B54FF40042484B5A60BFF34F8FBFF3C8
S2144002306F8F464B0022C3F850225A6942F4003270
S2144002405A61BFF34F8FBFF36F8FD3F88070C7F3F9
S2144002504E3607F007000430C7F3C907B7FA87FEE3
S2144002600EF01F0EBFF34F8F4FF0FF3404FA00FC22
S21440027006FA00F004FA0EF407FA0EFE1D463A4659
S214400280734640EA0301C5F86012013A2344B2F1CE
S214400290FF3FF6D1013E6044B6F1FF3FEFD1BFF3DA
S2144002A04F8F2A4B5A6942F480325A61BFF34F8FC0
S2144002B0BFF36F8F264A27495160A1F58071516080
S2144002C0BFF34F8FBFF36F8FD3F8902222F0010217
S2144002D0C3F89022D3F8942222F00102C3F8942265
S2144002E0BFF34F8FBFF36F8F0A201B4CA0470B20E6
S2144002F0A0470C20A0471020A0471120A047174B2E
S2144003004FF480721A61C3F8A0201A63A3F5806385
S2144003104FF400625A61C3F8A0205A66C3F8902092
S2144003205A651A62C3F88420196F21F40061196770
S214400330596F21F400615967C3F8C020C3F8D42030
S214400340C3F8B020F8BD00BF50180E4000ED00E0E6
S214400350000C0E400C08005A6D06400000120E407D
S2144003600AB90166704741667047C0F8841053006A
S2144003704FF40042B2FBF3F2013AC2F30D02C0F86A
S2144003808C2070470163704741637047416412F0A8
S214400390010F0DD1016612F00A0F0BD0016212F068
S2144003A0020F09D112F0080F08D0C0F8841005E0FB
S2144003B04166F0E74162F2E7C0F8801041610160B3
S2144003C0704710B4019C41644CB901664BB101655D
S2144003D04AB94163016101605DF8044B704741666C
S2144003E0F4E74165F4E70163F4E712F0100F12D02A
S2144003F0C0F8B01012F0200F07D0C0F8D41012F09A
S214400400400F05D0C0F8C0107047C0F8D010F6E7CF
S214400410C0F8C4107047C0F8B41070470164704705
S214400420C06C7047806C70472DE9F04104468846A2
S2144004300E4B9847054620460D4B9847054013D02F
S2144004400C4C04F1600603E0B4420DD010345DB1AC
S21440045020684045F8D161682942F5D0E36898475E
S214400460636825EA0305EFE7BDE8F0812104400014
S2144004702504400078044020F8B5184C2668062E1F
S2144004802AD84FF0000C6446154F04E00134E4B21D
S214400490A446A64209D3A64625017D598D42F5D1EC
S2144004A007EB04156D689542F0D10D4D4FEA0E1ED0
S2144004B005EB0E0445F80E106260A3600699E160F5
S2144004C00136664505D011461A46064B9847002029
S2144004D0F8BD02490E60F6E70120F8BDE80440206A
S2144004E078044020EB03400008B50A210148024B3F
S2144004F0984708BD000E0E402904400008B50B2161
S2144005000148024B984708BD00100E4029044000A1
S21440051008B50C210148024B984708BD00120E4012
S2144005202904400008B510210148024B984708BDF1
S21440053000140E402904400008B511210148024B22
S214400540984708BD00160E4029044000032811D0E5
S214400550042812D002280CBF4FF480710021084AAC
S214400560136B23F440730B431363936E13F0080F1F
S214400570FBD070474FF44071F1E74FF40071EEE75F
S21440058000060E40174A136B23F07003184310639F
S214400590936E13F0080F0AD14FF4805311498A6EB8
S2144005A012F0080F03D1013BF9D1012070470D4AE4
S2144005B0136B23F0030343F002031363936E13F0AD
S2144005C0080F0AD14FF4805306498A6E12F0080F7E
S2144005D005D1013BF9D1012070470020704700202B
S2144005E0704700BF00060E40A0B90E48036A0902D5
S2144005F089B20D4A1A400D4B134319430162024615
S214400600936E13F0010FFBD0064A116A084B0B435A
S2144006101362704703490B6A064A1A40064B134357
S2144006200B62704700060E40FCFFC8FF0100370013
S21440063000003701FCFFC8FE02003701024B986EEF
S21440064000F48030704700BF00060E404FF0005266
S214400650014B9A62704700BF00060E40024B986EF0
S21440066000F00200704700BF00060E403F281ED82C
S2144006701F280CD8114B9A6901238340934318D006
S214400680012303FA00F00D4B186100207047203814
S2144006900A4BD3F808210123834093430BD0012310
S2144006A003FA00F0054BC3F8000100207047012014
S2144006B07047002070470020704700BF00060E407D
S2144006C0FEE7000000B583B0254B264A9A4210D07C
S2144006D0254B234A9A420CD2013B9B1A23F0030334
S2144006E0043313441F4951F8040B42F8040B9A4252
S2144006F0F9D11E4B1E4A9A420AD2013B9B1A23F05E
S214400700030304331344002142F8041B9342FBD1F5
S214400710184A194B23F07F039360EFF31083B3FA24
S21440072083F35B09019372B6BFF35F8F0022134BCE
S2144007301A700199124A136843F470031360BFF3AA
S2144007404F8FBFF36F8F29B101220C4B1A70BFF346
S2144007505F8F62B60B4B98470B4B9847FEE700BF40
S21440076000004020701240005C04402014054020E9
S2144007705C04402000ED00E0000040000A004020FD
S21440078088ED00E0D1104000510D40003B4B1B6B04
S21440079003F00303012B1DD083B1022B36D0374B19
S2144007A01B6B03F07003702B5FD0344B1A6B3449CD
S2144007B0C2F302120B68D3400B607047314B5B6943
S2144007C013F0800F14BF4FF400424FF4FA422C4B04
S2144007D01A60E4E7294B1B6A13F0807F03D02A4A4D
S2144007E0274B1A60DBE7294A254B1A60234B1B6AC6
S2144007F003F07003102B05D0202BD0D1224A204B7B
S2144008001A60CCE7224A1E4B1A60C8E71B4B1B6A8D
S21440081013F0807F16D01C4A194B1A60174B1B6B7F
S21440082003F00303022BBAD1144A916A926A144821
S214400830C1F30A41036801FB0333D2B2B3FBF2F3C0
S2144008400360ACE7114A0E4B1A600C4B1B6A03F070
S2144008507003102B05D0202BE0D10B4A084B1A60B2
S214400860DCE70B4A064B1A60D8E7054A1368094985
S214400870A1FB03135B081360704700BF00060E40E1
S2144008800C00402010180E40001BB70000093D0029
S21440089000127A00ABAAAAAA164B984213D9164B56
S2144008A0984215D9154B984216D9154B984217D9E8
S2144008B0144B984218D9144B984294BF134A144A82
S2144008C0144B1A6070474FF08062124B1A607047A4
S2144008D0114A104B1A607047104A0E4B1A60704708
S2144008E00F4A0C4B1A6070474FF00422094B1A60AF
S2144008F0704700BFBFF35E017FE7BD023FDB1C04CD
S214400900FFCE7B05BFC2DA067FB639080005000475
S21440091000060004000C0E40000100040002000423
S2144009200003000408B50121024B19700248034B2E
S214400930984708BDEC044020000E0E408903400056
S21440094008B50122034B1A704FF080410248034B12
S214400950984708BDED04402000120E408903400031
S21440096008B50122034B1A7004210348034B9847ED
S21440097008BD00BFEE04402000100E408903400032
S21440098008B50548054B984710F0010F02D00122E4
S214400990034B1A7008BD00BF30180E40AD01400032
S2144009A0EF0440202DE9F04182B04F4B98474F4B23
S2144009B0984710204E4FB8470C20B8470A20B847F3
S2144009C04C4E64224FF080513046DFF85081C0478D
S2144009D0494C64224FF000412046C047474D6422B0
S2144009E04FF400212846C04708224FF08051304639
S2144009F0DFF82C81C04708224FF000412046C04710
S214400A0008224FF400212846C04701224FF080516B
S214400A103046DFF81081C04701224FF000412046A3
S214400A20C04701224FF400212846C0474FF080516E
S214400A303046DFF8F480C0474FF000412046C047BC
S214400A404FF400212846C0473046DFF8E080C047D4
S214400A502046C0472846C047294B4FF480321A608C
S214400A60A02283F810234FF48051196083F80C239A
S214400A704FF48061196083F80A23224B0093502379
S214400A804FF08052102130461F4EB0471F4B009308
S214400A9050234FF000420C212046B0471C4B009399
S214400AA050234FF400220A212846B0470A20B84770
S214400AB0002600963346012211462846154DA84783
S214400AC00C20B8470096334601224FF0804120461E
S214400AD0A8470B20B84700963346012204210E480B
S214400AE0A84702B0BDE8F08121024000B1014000B5
S214400AF06D06400000140E4000120E40000E0E40E0
S214400B0000E100E02509400079044000410940002A
S214400B1061094000C303400000100E406B034000D4
S214400B208D034000610340001D0440002104400046
S214400B302DE9F04F83B0B0F1000835DD1D46019237
S214400B400F464FEAE17B1A4BA1FB030103FB0B1157
S214400B5041F22C72002341F22B7A4FF0000B10EB3F
S214400B600A0041EB0B01134CA04783460024DFF8F4
S214400B704CA0114EDFF8489009E03320B047294694
S214400B800198C8473320B0470134A0450CD02946C9
S214400B900198D047002FF0D05846B04729460198D4
S214400BA0C8475846B047EFE703B0BDE8F08F00BFF0
S214400BB000A3E111C10D4000010040208903400020
S214400BC0850340002DE9F84F0E1E2BDD1746051F06
S214400BD00024DFF854A0DFF85490DFF8548008E093
S214400BE0424639461846DFF84CB0D8470134A6424C
S214400BF018D055F8043F012BF2D0022B09D0032B16
S214400C00F4D10423524639460120DFF828B0D847AD
S214400C10ECE74FF080434A4639460120DFF814B0EF
S214400C20D847E3E7BDE8F88F00100E4000120E40AC
S214400C30000E0E40310B4000002935DD2DE9F04313
S214400C40061F00252F461B4A1B481C4CAE464FF03D
S214400C5003094FF002084FF0010C0BE013789BB1EC
S214400C6082F800E0674656F8043F9F421ED10135A1
S214400C70A94216D01378002BF0D10378002BEDD183
S214400C802378002BF6D0E9E703781BB180F800E024
S214400C904746E8E72378002BE5D084F800E04F4647
S214400CA0E1E70020BDE8F083002070470120BDE862
S214400CB0F08300BFEC044020ED044020EE044020CA
S214400CC0F8B50E4F012138460D4CA0470D4E4FF05B
S214400CD080413046A0470C4D04212846A0470B488B
S214400CE00B4B9847012138460A4CA0474FF08041AD
S214400CF03046A04704212846A047F8BD000E0E40C7
S214400D008903400000120E4000100E40D65E0706D3
S214400D10010040208503400010B50123084A6421A5
S214400D201846084CA0474FF08043074A64210120EC
S214400D30A0470423054A64210120A04710BD00BFF8
S214400D40000E0E40310B400000120E4000100E40C8
S214400D5080B5104B984701220F4B1A70DFF8589019
S214400D60DFF858800D4F01E00D4B98474846C04786
S214400D700C4D0D4C3B464FF47A72296820460B4E7C
S214400D80B047296820460A4B98470028ECD1094BC3
S214400D909847EBE7A5094000EF044020200040209C
S214400DA0190D40001C00402010004020C50B40009C
S214400DB0390C4000C10C4000B6D7810101004020EC
S214400DC053B94AB9002908BF00281CBF4FF0FF316D
S214400DD04FF0FF3000F07AB9ADF1080C6DE904CE63
S214400DE000F006F8DDF804E0DDE9022304B07047C1
S214400DF02DE9F0478C460D460446089E002B51D1FF
S214400E008A4217466DD9B2FA82FEBEF1000F0BD069
S214400E10CEF1200C01FA0EF520FA0CFC02FA0EF781
S214400E204CEA050C00FA0EF44FEA174A250CBCFBB8
S214400E30FAF81FFA87F90AFB18CC45EA0C4508FB76
S214400E4009F3AB420AD9ED1908F1FF3280F023814D
S214400E50AB4240F22081A8F102083D44ED1AA4B20C
S214400E60B5FBFAF00AFB105544EA054400FB09F9C5
S214400E70A14509D9E41900F1FF3380F00A81A14564
S214400E8040F2078102383C44A4EB090440EA08409B
S214400E900021002E61D024FA0EF4002334607360E3
S214400EA0BDE8F0878B4207D9002E54D0002186E853
S214400EB021000846BDE8F087B3FA83F1002940F0E8
S214400EC08E80AB4202D3824200F2FA80841A65EBEF
S214400ED003050120AC46002E3FD086E81010BDE842
S214400EE0F08712B90127B7FBF2F7B7FA87FEBEF1D3
S214400EF0000F34D1EB1B3A0C1FFA87FC0121B3FBE1
S214400F00F2F8250C02FB183345EA03450CFB08F3C0
S214400F10AB4207D9ED1908F1FF3002D2AB4200F2DE
S214400F20D1808046ED1AA3B2B5FBF2F002FB105515
S214400F3043EA05440CFB00FCA44507D9E41900F13C
S214400F40FF3302D2A44500F2B8801846A4EB0C0446
S214400F5040EA08409DE731463046BDE8F087CEF18E
S214400F60200405FA0EF307FA0EF720FA04F83A0CB6
S214400F7025FA04F448EA0308B4FBF2F14FEA1845B0
S214400F8002FB11441FFA87FC45EA044501FB0CF3BB
S214400F90AB4200FA0EF409D9ED1901F1FF3080F0AA
S214400FA08A80AB4240F2878002393D44EB1A1FFAF2
S214400FB088F5B3FBF2F002FB103345EA034500FB2D
S214400FC00CF3AB4207D9ED1900F1FF386FD2AB42B4
S214400FD06DD902383D44EB1A40EA01418FE7C1F132
S214400FE0200722FA07F88B4005FA01F448EA030383
S214400FF020FA07FE4FEA134CFD404EEA040EB5FBBE
S214401000FCF94FEA1E440CFB19551FFA83F844EAD4
S214401010054509FB08F4AC4202FA01F200FA01FA6F
S21440102008D9ED1809F1FF3043D2AC4241D9A9F1B5
S21440103002091D442D1B1FFA8EFEB5FBFCF00CFB6F
S21440104010554EEA054400FB08F8A04507D9E418B9
S21440105000F1FF3529D2A04527D902381C4440EA82
S2144010600940A4EB0804A0FB02894C45C6464D4601
S21440107015D312D056B1BAEB0E0364EB050404FA4E
S21440108007F7CB401F43CC40376074600021BDE873
S214401090F0871846F8E69046E0E6C245EAD2B8EB56
S2144010A0020E69EB03050138E4E72846D7E74046D9
S2144010B091E78146BEE7014678E702383C4445E77B
S2144010C0084608E7A8F102083D442BE7704700BFF2
S2144010D070B50F4E0F4D761BB61018BF002405D0C6
S2144010E0013455F8043B9847A642F9D10A4E0B4DB9
S2144010F0761B00F0A7F8B61018BF002406D00134BF
S21440110055F8043B9847A642F9D170BD70BD00BF64
S21440111050124000501240005812400050124000FA
S214401120024B13B1024800F005B8704700000000BB
S21440113041114000002301461A46184600F01EB8EA
S21440114038B50A4C0A4D641BA4100AD004F18043FB
S214401150013B05EB8305013C55F804399847002CC4
S214401160F9D1BDE8384000F077B800BF68124000BB
S21440117064124000704700BF704700BF2DE9F84337
S2144011802C4D0646286898460F469146FFF7F2FFD4
S214401190294B1C68D4F84831002B3ED05A681F2A89
S2144011A01CDC02F1010E76B103EB82010124C1F88A
S2144011B08890D3F8880194402043022EC3F88801D3
S2144011C0C1F8088123D00232C3F804E0286843F807
S2144011D02270FFF7D1FF0020BDE8F883174B0BB312
S2144011E04FF4C870AFF300800346D8B1D4F8482116
S2144011F00260002141600A46C4F848014FF0010EE3
S214401200C0F88811C0F88C11002EDCD0CCE7D3F89B
S2144012108C110C43C3F88C41D5E704F5A673C4F88B
S2144012204831BBE72868FFF7A7FF4FF0FF30BDE81F
S214401230F88300BF580440204012400000000000E1
S21440124030004020F8B500BFF8BC08BC9E4670474A
S2144012502111400065014000F8B500BFF8BC08BC4D
S20C4012609E4670474101400024
S20C40126888FBFF7F0100000037
S214401270BFF35F8F0138FBD17047010000093D0086
S2144012800100000003000000020000000300000010
S21440129001000000040000000000004000000000C4
S2144012A0000000001C03402084034020EC03402044
S2144012B000000000000000000000000000000000E9
S2144012C000000000000000000000000000000000D9
S2144012D000000000000000000000000000000000C9
S2144012E000000000000000000000000000000000B9
S2144012F000000000000000000000000000000000A9
S2144013000000000000000000000000000000000098
S2144013100000000000000000000000000000000088
S2144013200000000000000000000000000000000078
S2144013300000000000000000000000000000000068
S2144013400000000000000000010000000000000057
S2144013500E33CDAB34126DE6ECDE05000B0000001C
S2144013600000000000000000000000000000000038
S2144013700000000000000000000000000000000028
S2144013800000000000000000000000000000000018
S2144013900000000000000000000000000000000008
S2104016C00000000000000000F004402085
S8044006C5F0
